:100000003BC055C054C03EC676C50FC6B4C5E0C59A
:1000100045C5F1C44CC0C6C64AC008C783C047C066
:1000200046C045C044C030313233343536373839B4
:1000300041424344454600000001000800400000E2
:1000400001000400000100080020004000800000C2
:100050000100041B5B25643B256448001B5B3F32A9
:10006000356C001B5B3F323568001B5B25646D00FF
:100070001B5B324A001B630011241FBECFE5D4E096
:10008000DEBFCDBF10E0A0E6B0E0E4E4F1E102C0E5
:1000900005900D92A236B107D9F711E0A2E6B0E0C3
:1000A00001C01D92A43DB107E1F759D04AC8A8CFBD
:1000B00033983798089596B1987F982B96B90895FC
:1000C00097B18295880F880F807C9F73982B97B982
:1000D000089597B18F71907E892B87B90895349ACE
:1000E000369A089586B19927807490700895109279
:1000F000B30197B18F71907E892B87B9349A369A64
:100100003699FECF24B185B19927982F88273327B8
:10011000822B932B0895EBDF96958795969587957F
:10012000992708951F920F920FB60F9211248F9363
:100130008FEF8093B3018F910F900FBE0F901F90A0
:100140001895379A359886B1887F866086B981E0A0
:10015000B7DF3D98339A1092B30178940895CBE8B5
:10016000D3E0DEBFCDBFDFD688EB96E00FD1B7D5A9
:10017000E8DF14BA15BA85E09EDF81E0A1DF3CE03C
:10018000C32ED12CCC0EDD1E21E7422E512C4C0E5D
:100190005D1E92E0A92EB12CAC0EBD1E4E0108943E
:1001A000811C911C80E6682E80E0782EF601119269
:1001B000E415F505E1F7F5011192EC15FD05E1F700
:1001C0001982C40169D689818432D9F700E010E030
:1001D000F02E8981F601E00FF11F80838A3041F013
:1001E000C4015AD6F3940F5F1F4F0436110581F7EF
:1001F000F601EF0DF11D108282E079DF4AE050E058
:10020000B50100D7FF2031F0B501C601F0D6B3012A
:10021000C601EDD6B6D500E010E004C0A9D583E252
:1002200090E000D3F601E00FF11D80810F5F1F4FBA
:100230008823A1F7BBCFFC018FB7F894718360834B
:100240005383428317821682158214828FBF0895CA
:10025000CF93DF93DC014FB7F894EC018C819D8143
:10026000892B11F4E0E01CC0FD0186819781ED919E
:10027000FC911197E80FF91FE0810196ED019F8332
:100280008E832A813B818217930720F0821B930B78
:100290009F838E83ED018C819D8101979D838C834B
:1002A0004FBF8E2F9927DF91CF910895FC014FB753
:1002B000F8948481958168177907B0F486819781D5
:1002C000860F971F97838683228133818217930736
:1002D00020F0821B930B9783868384819581861BF4
:1002E000970B9583848302C0158214824FBF0895B3
:1002F000FC01CB014FB7F89426813781628173816D
:10030000820F931FCDD60190F081E02DE80FF91FE9
:1003100080814FBF992708951F93CF93DF93EC01FE
:10032000162F4FB7F8942C813D816A817B81261767
:10033000370798F48E819F81820F931FB1D6E88191
:10034000F981E80FF91F10838C819D8101969D83AF
:100350008C834FBF8FEF90E003C04FBF80E090E0F1
:10036000DF91CF911F910895FC018FB7F8948FBF53
:100370008281938124813581821B930B0895FC0136
:100380008FB7F894158214828FBF089590936300FD
:100390008093620008951F93182F8A3031F4E09102
:1003A0006200F09163008DE00995E0916200F091A8
:1003B0006300812F09951F910895CF93DF93EC017E
:1003C000892B19F405C02196E6DF88818823D9F7A7
:1003D000DF91CF910895EF92FF920F931F93CF93E8
:1003E000DF937A010097C1F0EC01680F791FC617FF
:1003F000D70719F089918823D1F700E010E009C0F0
:100400008881882311F0219601C080E2C4DF0F5F4C
:100410001F4F0E151F05A1F7DF91CF911F910F916F
:10042000FF90EF900895CF93DF93EC01892B11F4A7
:1004300006C0B1DFFE01219684918823D1F7DF91B8
:10044000CF9108958AE0A7DF0895E82FFF27EF7086
:10045000F070EA5DFF4FE4918E2F9DDF08951F93AA
:10046000182F82958F70F1DF812FEFDF1F91089594
:100470000F931F938C01812F9927F1DF802FEFDFDE
:100480001F910F910895EF92FF920F931F937B019D
:100490008C01C801AA27BB27EBDFC701E9DF1F9149
:1004A0000F91FF90EF9008952F923F924F925F929D
:1004B0006F927F928F929F92AF92BF92CF92DF9274
:1004C000EF92FF920F931F93CF93DF93CDB7DEB7D9
:1004D000A4970FB6F894DEBF0FBECDBF4BA32CA3DD
:1004E00027013801442351F017FF08C0EE24FF24F0
:1004F0008701E418F5080609170902C08301720193
:1005000069A390E02BA1211191E0E9A1E91BE15041
:10051000EAA318A2882E992487FC9094A92CB92CC0
:10052000C801B701A5019401CFD5FB01EF70F070B0
:10053000EA5DFF4F64916F8FC801B701A501940177
:10054000C3D569017A012EE1222E312C2C0E3D1EDD
:1005500020C0C114D104E104F104A9F0C701B6011F
:10056000A5019401B1D5FB01EF70F070EA5DFF4F7A
:100570006491F1016083C701B601A5019401A4D57E
:1005800069017A0103C02CA1F1012083089421089C
:10059000310881010F5F1F4F8AA181508AA38F3FCD
:1005A000C1F69BA19923B1F077FE03C081018DE2D2
:1005B0000AC0411451046104710419F081018BE2F5
:1005C00002C0810180E2F801808304C0F8018191BA
:1005D0008F01E1DEF9A1F150F9A3FF3FB9F7A4962D
:1005E0000FB6F894DEBF0FBECDBFDF91CF911F9144
:1005F0000F91FF90EF90DF90CF90BF90AF909F90C2
:100600008F907F906F905F904F903F902F900895C4
:100610009F92AF92BF92CF92DF92EF92FF920F9391
:100620001F93CF93DF93CDB7DEB722970FB6F89421
:10063000DEBF0FBECDBF9888C988DA88CE01439649
:100640009A83898304C0882309F465C0A4DE9601D7
:100650002F5F3F4F992021F0F6016901849103C07B
:10066000F60180816901853271F72F5F3F4F992034
:1006700021F0F6016901849103C0F60180816901CE
:100680008436A1F0883719F0833601F707C0E12CD2
:1006900060E1F62E50E1A52EB12C0FC0E981FA8160
:1006A0003296FA83E98332978081D0CF40E1E42EFD
:1006B00047E2F42E3AE0A32EB12CE981FA8132967A
:1006C000FA83E983129102918436A1F417FF0BC0DB
:1006D000109501951F4F8DE25EDE05C0C7016AE0EF
:1006E00070E0DED47B01F2E0EF16F10418F00E1595
:1006F0001F05A0F3C801B701D3D4CB01A6DEC80102
:10070000B701CED48C01C701B501CAD47B01672BD8
:1007100009F49DCFEFCF80E090E022960FB6F894D9
:10072000DEBF0FBECDBFDF91CF911F910F91FF9024
:10073000EF90DF90CF90BF90AF909F900895089575
:1007400083B7887F826083BF12BE89B7816089BF0B
:100750001092B4011092B5011092B6011092B70137
:1007600008958EB5887F83608EBD1DBC1CBC89B783
:10077000846089BF089585B5887F846085BD14BC79
:1007800089B7806489BF1092BC011092BD0110929C
:10079000BE011092BF01089593B7987F982B93BF25
:1007A00008959EB5987F982B9EBD089595B5987F26
:1007B000982B95BD0895E3B7FF27E770F070EE0F13
:1007C000FF1FE95CFF4F859194910895EEB5FF27D7
:1007D000E770F070EE0FFF1FE95CFF4F8591949179
:1007E0000895E5B5FF27E770F070EE0FFF1FED5B92
:1007F000FF4F859194910895873040F4E82FFF27AB
:10080000EE0FFF1FEC59FF4F71836083089587300F
:1008100040F4E82FFF27EE0FFF1FEC59FF4F118226
:1008200010820895EF92FF920F931F93CF93DF935F
:10083000EC0112B71092B8011092B9011092BA01EE
:100840001092BB01B8DF9C014427552760E072E19C
:100850008AE790E05BD4CA01B901693B2DE87207D1
:1008600026E0820720E0920770F427E2C131D20728
:1008700050F49E0144275527F4D328EE33E040E09E
:1008800050E022D421C028EE33E040E050E01CD4F8
:10089000CA01B9019E0144275527E3D39B01AC014E
:1008A00013C08091B8019091B901A091BA01B091A3
:1008B000BB0185B78F7885BF85B7806885BF889570
:1008C00085B78F7785BF06C0210F311D411D511D92
:1008D00079018A012091B8013091B9014091BA01A2
:1008E0005091BB0182B79927AA27BB27542F432FCA
:1008F000322F2227822B932BA42BB52B8E159F05ED
:10090000A007B10770F2DF91CF911F910F91FF9077
:10091000EF9008951092B4011092B5011092B601B3
:100920001092B70108956091B4017091B501809162
:10093000B6019091B70108951092BC011092BD01CB
:100940001092BE011092BF0108956091BC01709198
:10095000BD018091BE019091BF010895893031F4AD
:100960008FB582608FBD8FB58E7F0AC08A3019F433
:100970008FB5826002C08FB58D7F8FBD8FB58160CE
:100980008FBD1BBC1ABC19BC18BC08952FB52E7F97
:100990002FBD2FB522602FBD2EB528602EBD2EB5E0
:1009A00020612EBD97BD86BD1BBC1ABC19BC18BCEE
:1009B00008958FB580688FBD8FB58F7B8FBD0895EB
:1009C0008FB580628FBD8FB58F7E8FBD08958FB537
:1009D0008F778FBD8FB58F7B8FBD08958FB58F7D3E
:1009E0008FBD8FB58F7E8FBD08959BBD8ABD089545
:1009F00099BD88BD08951F920F920FB60F921124D2
:100A00002F933F934F935F936F937F938F939F9316
:100A1000AF93BF93EF93FF938091B4019091B50191
:100A2000A091B601B091B7010196A11DB11D8093AF
:100A3000B4019093B501A093B601B093B701809132
:100A4000B8019091B901A091BA01B091BB01019692
:100A5000A11DB11D8093B8019093B901A093BA0173
:100A6000B093BB018091640090916500892B29F0BF
:100A7000E0916400F09165000995FF91EF91BF91BD
:100A8000AF919F918F917F916F915F914F913F9126
:100A90002F910F900FBE0F901F9018951F920F92DD
:100AA0000FB60F9211242F933F934F935F936F9341
:100AB0007F938F939F93AF93BF93EF93FF93809117
:100AC000660090916700892B29F0E0916600F09113
:100AD00067000995FF91EF91BF91AF919F918F9121
:100AE0007F916F915F914F913F912F910F900FBE2A
:100AF0000F901F9018951F920F920FB60F9211240E
:100B00002F933F934F935F936F937F938F939F9315
:100B1000AF93BF93EF93FF938091BC019091BD0180
:100B2000A091BE01B091BF010196A11DB11D80939E
:100B3000BC019093BD01A093BE01B093BF01809111
:100B40006E0090916F00892B29F0E0916E00F0917A
:100B50006F000995FF91EF91BF91AF919F918F9198
:100B60007F916F915F914F913F912F910F900FBEA9
:100B70000F901F9018951F920F920FB60F9211248D
:100B80002F933F934F935F936F937F938F939F9395
:100B9000AF93BF93EF93FF938091680090916900AA
:100BA000892B29F0E0916800F09169000995FF9187
:100BB000EF91BF91AF919F918F917F916F915F91D5
:100BC0004F913F912F910F900FBE0F901F9018954E
:100BD0001F920F920FB60F9211242F933F934F93B2
:100BE0005F936F937F938F939F93AF93BF93EF9395
:100BF000FF9380916A0090916B00892B29F0E0911E
:100C00006A00F0916B000995FF91EF91BF91AF9150
:100C10009F918F917F916F915F914F913F912F9114
:100C20000F900FBE0F901F9018951F920F920FB646
:100C30000F9211242F933F934F935F936F937F9362
:100C40008F939F93AF93BF93EF93FF9380916C002B
:100C500090916D00892B29F0E0916C00F0916D006E
:100C60000995FF91EF91BF91AF919F918F917F91E6
:100C70006F915F914F913F912F910F900FBE0F9009
:100C80001F9018951F920F920FB60F9211242F9359
:100C90003F934F935F936F937F938F939F93AF9304
:100CA000BF93EF93FF938091700090917100892B17
:100CB00029F0E0917000F09171000995FF91EF919A
:100CC000BF91AF919F918F917F916F915F914F9164
:100CD0003F912F910F900FBE0F901F90189580E0BD
:100CE00090E0FC01EE0FFF1FEC59FF4F11821082C4
:100CF000019687309105A9F723DD33DD3CDD78943B
:100D000008958FB58D7F8FBD8FB58E7F8FBD8FB5C9
:100D10008F778FBD8FB58F7B8FBD8FB58F7D8FBD4B
:100D20008FB58F7E8FBD08959093B2018093B101EE
:100D30000895F3E0660F771F881F991FFA95D1F782
:100D40009B01AC01220F331F441F551F60507E4E84
:100D500085489F4FB9D12150304029B9232F3327DF
:100D600020BD089581EC91E008958AEC91E008950A
:100D7000982F8091C0018823E1F39CB91092C001A3
:100D800008951092C6011092C50108958091C50181
:100D90009091C601892B19F48FEF90E0089580E0BF
:100DA00090E008951F920F920FB60F9211242F9387
:100DB0003F934F935F936F937F938F939F93AF93E3
:100DC000BF93EF93FF936CB18091B1019091B20109
:100DD000892B39F0E091B101F091B201862F09958C
:100DE0000EC081EC91E098DA882349F48091D20119
:100DF0009091D30101969093D3018093D201FF91FA
:100E0000EF91BF91AF919F918F917F916F915F9182
:100E10004F913F912F910F900FBE0F901F901895FB
:100E2000682F8AEC91E078DA992708951F920F9243
:100E30000FB60F9211242F933F934F935F936F93AD
:100E40007F938F939F93AF93BF93EF93FF93809183
:100E5000C901882369F08091CE019091CF01892B3F
:100E600029F08AEC91E0F4D98CB905C01092C9013F
:100E70008FEF8093C001FF91EF91BF91AF919F9150
:100E80008F917F916F915F914F913F912F910F9033
:100E90000FBE0F901F901895CF93DF93EC018091B8
:100EA000C3019091C401892B69F08091C501909193
:100EB000C601892B39F081EC91E0CAD988838FEF84
:100EC00090E002C080E090E0DF91CF910895CF9351
:100ED000DF93CDB7DEB721970FB6F894DEBF0FBE14
:100EE000CDBFCE010196D8DF882319F48FEF9FEF95
:100EF00002C08981992721960FB6F894DEBF0FBEF4
:100F0000CDBFDF91CF9108954FEF50E062E770E0E1
:100F100081EC91E090D940E450E061E771E08AEC27
:100F200091E089D90895F0DF1092B2011092B101D9
:100F300088ED8AB960E875E280E090E0FADE8FEF34
:100F40008093C0011092C9011092D3011092D20176
:100F5000789408958FEF8093C9018AEC91E078D955
:100F6000982F8091C0018823E1F39CB91092C001B1
:100F7000089577277F936F9399279F938F9383E5A6
:100F800090E09F938F9381E08F9342DB8DB79EB764
:100F900007960FB6F8949EBF0FBE8DBF08958823A5
:100FA00019F083E690E002C08CE590E09F938F9368
:100FB00081E08F932DDB0F900F900F90089599276C
:100FC0009F938F938AE690E09F938F9381E08F9316
:100FD0001FDB0F900F900F900F900F90089580E7F8
:100FE00090E021DA089585E790E01DDA0895FB018D
:100FF000DC010D900020E9F7119701900D9200207F
:10100000E1F70895FB019F01E8944230BCF04532BE
:10101000ACF44A3029F497FB1EF4909581959F4FCC
:10102000642F77273DD0805D8A330CF0895D8193F2
:10103000CB010097A9F716F45DE251931082C90124
:1010400000C0DC01FC01672F71917723E1F7329733
:1010500004C07C916D9370836291AE17BF07C8F393
:101060000895629FD001739FF001829FE00DF11DF2
:10107000649FE00DF11D929FF00D839FF00D749F12
:10108000F00D659FF00D9927729FB00DE11DF91FBE
:10109000639FB00DE11DF91FBD01CF01112408951B
:1010A000AA1BBB1B51E107C0AA1FBB1FA617B7078E
:1010B00010F0A61BB70B881F991F5A95A9F78095AA
:1010C0009095BC01CD010895A1E21A2EAA1BBB1B6D
:1010D000FD010DC0AA1FBB1FEE1FFF1FA217B30704
:1010E000E407F50720F0A21BB30BE40BF50B661F1A
:1010F000771F881F991F1A9469F7609570958095DE
:1011000090959B01AC01BD01CF01089597FB092E7D
:1011100005260ED057FD04D0D7DF0AD0001C38F4C6
:1011200050954095309521953F4F4F4F5F4F089513
:10113000F6F790958095709561957F4F8F4F9F4FF3
:041140000895FFCF40
:021144000D009C
:00000001FF
