:100000000C941D010C943A010C943A010C943A01A1
:100010000C943A010C943A010C943A010C943A0174
:100020000C943A010C943A010C943A010C943A0164
:100030000C943A010C943A010C943A010C943A0154
:100040000C943A010C943A010C94341B0C943A0130
:100050000C943A010C943A010C943A010C943A0134
:100060000C943A010C943A01756E6B6E6F776E20AA
:10007000636F6D6D616E643A20006572726F7220FD
:100080006372656174696E67206469726563746F19
:1000900072793A20006D6B64697220006572726F2C
:1000A000722077726974696E6720746F2066696C5C
:1000B000650A006572726F72207365656B696E67A1
:1000C000206F6E20006572726F72206F70656E69AE
:1000D0006E672000777269746520006572726F72B6
:1000E000206372656174696E672066696C653A2089
:1000F00000746F75636820006572726F72206465AA
:100100006C6574696E672066696C653A2000726D73
:1001100020006572726F722072656164696E67207B
:100120006469736B20696E666F0A006469736B00A3
:100130006572726F72206F70656E696E6720006302
:10014000617420006C73006469726563746F727906
:10015000206E6F7420666F756E643A2000636420B1
:10016000006F70656E696E6720726F6F74206469CE
:10017000726563746F7279206661696C65640A00E8
:100180006F70656E696E672066696C6573797374EC
:10019000656D206661696C65640A006F70656E69E3
:1001A0006E6720706172746974696F6E2066616930
:1001B0006C65640A004D4D432F534420696E697489
:1001C00069616C697A6174696F6E206661696C65DA
:1001D000640A00667265653A20202000666F726DC1
:1001E00061743A200077722E70722E3A2000636F8D
:1001F00070793A2020200073697A653A2020200027
:10020000646174653A2020200073657269616C3AFC
:10021000203078007265763A202020200070726FBE
:10022000643A202020006F656D3A20202020006D68
:10023000616E75663A202030780011241FBECFEF22
:10024000D4E0DEBFCDBF11E0A0E0B1E0E2E0F8E332
:1002500002C005900D92A230B107D9F713E0A2E0D9
:10026000B1E001C01D92A23CB107E1F70E94B512B6
:100270000C94001C0C940000FC01892B11F01182DD
:1002800010820895CF93DF93FC01D9018081853ED0
:1002900029F1882319F12D913C911197ED018A8163
:1002A0009B812817390799F44C835D836E837F8384
:1002B00083858F3011F080E205C080818295880FA0
:1002C000807E805EFD01808780E090E009C08385AC
:1002D0008F3021F02F5F3F4F2D933C9381E090E0D2
:1002E000DF91CF910895EF92FF920F931F93CF93D9
:1002F000DF93EC017A018B01B9018881853E09F415
:10030000CCC0882309F4C9C0F90187A190A5A1A593
:10031000B2A50097A105B10521F4E7A2F0A601A7B7
:1003200012A76115710509F4B8C0209709F4B5C08A
:100330009881992309F4B1C0AE01455F5F4F8B8569
:100340008F3099F5892F99278F7390702DE030E0C9
:10035000AC01429FC001439F900D529F900D11240C
:100360009C012D5030400197809708F093C0FB010D
:10037000E20FF31F898180838B8181838D8182834A
:100380008F818383898584838E858583888986830D
:100390008A8987838C8980878E898187888D8287E7
:1003A0008C8D83878E8D848775C0FB018081882327
:1003B000B9F580E090E0382FFE01E80FF91F2081A9
:1003C000203249F0FB01E80FF91F20833F5F0196BF
:1003D0008830910581F7FB018081853011F485EE2D
:1003E00080838885803211F4832F16C0FB01E30FD0
:1003F000F11D8EE28083832F8F5FDE01232F2C5F20
:10040000FD019085903241F0FB01E80FF11D9083D2
:100410008F5F11968217A1F7FB01E80FF11D108283
:10042000FA018081FB0180A38B8D9927982F882763
:100430002A8D3327822B932B92A381A32D8D3327D3
:1004400044275527542F432F322F22278E8D99274B
:10045000AA27BB27DC0199278827282B392B4A2B71
:100460005B2B8C8D9927AA27BB27282B392B4A2B4E
:100470005B2B8F8D9927AA27BB27B82FAA279927EF
:100480008827282B392B4A2B5B2B23A334A345A386
:1004900056A303C081E090E002C080E090E0DF91CD
:1004A000CF911F910F91FF90EF9008950F931F939D
:1004B000CF93DF93CDB7DEB722970FB6F894DEBFA8
:1004C0000FBECDBFDC01892BA9F16230710590F11F
:1004D0000D911C911197660F771F88279927FD01B1
:1004E0002681378140855185620F731F841F951FB8
:1004F000D801ED91FC9122E030E0AE014F5F5F4FFB
:1005000009958823B9F08A819927382F2227898174
:100510009927282B392B2115310571F0BFEF273F83
:100520003B0741F0C9014096079720F0EFEF283FC5
:100530003E0710F020E030E0C90122960FB6F89493
:10054000DEBF0FBECDBFDF91CF911F910F910895F8
:100550004F925F926F927F928F929F92AF92BF92D3
:10056000CF92DF92EF92FF920F931F93CF93DF937F
:10057000CDB7DEB722970FB6F894DEBF0FBECDBF62
:100580005C01009709F44BC06230710508F447C064
:10059000FC0166807780808491842E010894411C40
:1005A000511C660F771F6B01EE24FF24C60CD71C6D
:1005B000E81CF91CD501ED91FC910190F081E02D32
:1005C00022E030E0A201C701B6010995882339F184
:1005D0008A819927182F002789819927082B192BA1
:1005E00001151105F9F0C80140960897C0F0BFEF5A
:1005F000083F1B0710F000E010E019821A82D501B5
:10060000ED91FC910480F581E02D22E030E0A20123
:10061000C701B6010995B801012B21F0C2CF80E0D6
:1006200090E002C081E090E022960FB6F894DEBF21
:100630000FBECDBFDF91CF911F910F91FF90EF9033
:10064000DF90CF90BF90AF909F908F907F906F90F2
:100650005F904F9008952F923F924F925F926F92CA
:100660007F928F929F92AF92BF92CF92DF92EF9242
:10067000FF920F931F93CF93DF93CDB7DEB72C97E5
:100680000FB6F894DEBF0FBECDBF3C012B011A019F
:10069000009709F495C0DC01ED91FC912081318136
:1006A0003C872B870480F581E02DFA87E987FC01E0
:1006B00086819781A085B1858D839E83AF83B8871E
:1006C00082859385A485B585B695A79597958795D9
:1006D0009C838B836A01AA24BB248824992444C068
:1006E000C401880F991F7C01002711272D813E81AD
:1006F0004F815885E20EF31E041F151F22E030E0E3
:10070000AE014F5F5F4FC801B701AB85BC85FD01EE
:100710000995882309F454C08981882311F58A81B9
:100720008823F9F4C214D30419F48FEF898303C02A
:10073000A9828B2D99278A8322E030E0AE014F5F9A
:100740005F4FC801B701E985FA850995882391F0C3
:100750000894C108D108C114D10411F454010CC08B
:1007600054010894811C911C2B813C8182169306B4
:1007700009F0B6CFCD2801F532E04316510410F14F
:10078000A9828B2D99278A83440C551CB201882796
:1007900099272D813E814F815885620F731F841FD9
:1007A000951F22E030E0AE014F5F5F4FA985BA850B
:1007B000FD010995882331F4B501C3010E94A80207
:1007C000AA24BB24C5012C960FB6F894DEBF0FBE39
:1007D000CDBFDF91CF911F910F91FF90EF90DF90F0
:1007E000CF90BF90AF909F908F907F906F905F90D1
:1007F0004F903F902F900895CF92DF92EF92FF920B
:100800000F931F93CF93DF93CDB7DEB760970FB6EB
:10081000F894DEBF0FBECDBF7C016230710518F4C5
:1008200080E090E027C0FC01C088D1880081118160
:1008300062507040882799279601442755270E94C7
:10084000981B9B01AC01F70166897789808D918D9A
:10085000620F731F841F951FF801A681B781EE24D4
:10086000FF240AEE16E09601AE014F5F5F4FFD01D7
:100870000995992760960FB6F894DEBF0FBECDBFDD
:10088000DF91CF911F910F91FF90EF90DF90CF906C
:100890000895FC01892B11F01182108208952F9286
:1008A0003F924F925F926F927F928F929F92AF9200
:1008B000BF92CF92DF92EF92FF920F931F93CF934D
:1008C000DF93CDB7DEB72C970FB6F894DEBF0FBE1F
:1008D000CDBF3C0178876F835A874987009709F419
:1008E000FCC0672B09F4F9C0452B09F4F6C0FC01E4
:1008F000A5A4B6A4C7A4D0A825A136A147A150A5F8
:1009000069857A85CB01AA27BB278A0D9B1DAC1D63
:10091000BD1D281739074A075B0738F42A193B0918
:100920003A872987232B09F4DBC0D3018D919C9151
:10093000FC01808991899A838983F30101A8F2A936
:10094000E02DFC87EB87BC01882799276B837C838C
:100950008D839E83EF2BE1F5F30103A0F4A1E02D3D
:10096000FC87EB87EF2B39F4A114B104C104D10447
:1009700009F4B6C0B2C0A114B104C104D10441F15C
:10098000860175012B803C804D805E8050944094A0
:1009900030942094211C311C411C511C10C06B85CB
:1009A0007C85D3018D919C910E9456029C878B87F8
:1009B000892B09F492C0E20CF31C041D151D6B81F8
:1009C0007C818D819E81E616F7060807190738F7A6
:1009D000C601B5012B813C814D815E810E94DE1BE9
:1009E0002B0189849A84D3018D919C91A980BA802E
:1009F000A418B5088A149B0408F45401FC01C080B3
:100A0000D18072010027112786899789A08DB18D29
:100A1000E80EF91E0A1F1B1F2B853C852250304013
:100A2000B901882799272E5F3F4F3C872B872B8161
:100A30003C814D815E810E94981BE60EF71E081FC7
:100A4000191FD601CD90DC9095014F815885C801C2
:100A5000B701F6010995882339F18A189B08C50169
:100A6000AA27BB27F30125A536A547A550A9280F1E
:100A7000391F4A1F5B1F25A736A747A750ABC501E3
:100A8000840D951D29813A8182179307A0F06B850B
:100A90007C85808191810E9456029C878B87892B5F
:100AA00041F4F30112AA11AA49855A854819590936
:100AB00019C0442455242B853C85F30132AB21AB6E
:100AC0008114910439F06F8178856A0D7B1D7887D8
:100AD0006F8389CF49855A8505C04FEF5FEF02C00C
:100AE00040E050E0CA012C960FB6F894DEBF0FBE6E
:100AF000CDBFDF91CF911F910F91FF90EF90DF90CD
:100B0000CF90BF90AF909F908F907F906F905F90AD
:100B10004F903F902F900895FC01892B11F0118286
:100B200010820895FC01892B19F480E090E008956B
:100B300016A615A681E090E008958F929F92AF923D
:100B4000BF92CF92DF92EF92FF920F931F93CF93BA
:100B5000DF93CDB7DEB72C970FB6F894DEBF0FBE8C
:100B6000CDBF6C015B01892B09F452C06115710581
:100B700009F44EC0FB01E7A0F0A401A512A5E11401
:100B8000F1040105110509F443C04E010894811CCC
:100B9000911CD601ED91FC910190F081E02D2CE0AB
:100BA00030E0A401C801B7010995882389F185EED9
:100BB0008983D601ED91FC910480F581E02D2CE034
:100BC00030E0A401C801B7010995882309F18C859B
:100BD0008F3049F480E290E0A0E0B0E0E80EF91E2A
:100BE0000A1F1B1FD6CFF50161A172A16115710506
:100BF00019F481E090E00AC0C6010E94A80220E03A
:100C000030E0882311F021E030E0C901992702C0CB
:100C100080E090E02C960FB6F894DEBF0FBECDBFFB
:100C2000DF91CF911F910F91FF90EF90DF90CF90C8
:100C3000BF90AF909F908F90089508950895FC0104
:100C4000892B29F460E070E080E090E008956285EF
:100C50007385848595859695879577956795625078
:100C600070408040904020893189442755270E9458
:100C7000981B08952F923F924F925F926F927F92AE
:100C80008F929F92AF92BF92CF92DF92EF92FF929C
:100C90000F931F93CF93DF93CDB7DEB7A5970FB612
:100CA000F894DEBF0FBECDBF1C01892B09F456C0DE
:100CB0001A82198280E28B83F1014680578060841A
:100CC000718482849384A484B58437C0FEEF8F1628
:100CD000FFEF9F06F0E0AF06F0E0BF0628F02EEF32
:100CE0003FEF3DA32CA302C09DA28CA2D101ED91A8
:100CF000FC910280F381E02D6E010894C11CD11C8F
:100D0000BBECEB2EB6E0FB2E0CA11DA120E230E0E7
:100D1000AE014C5F5F4FC301B20109958823F1F02A
:100D20000CA11DA1C801AA27BB27480E591E6A1E87
:100D30007B1E881A990AAA0ABB0A81149104A1048D
:100D4000B10421F6F10160897189882799272981E9
:100D50003A81442755270E94981B04C060E070E048
:100D600080E090E0A5960FB6F894DEBF0FBECDBF31
:100D7000DF91CF911F910F91FF90EF90DF90CF9077
:100D8000BF90AF909F908F907F906F905F904F90AB
:100D90003F902F900895AC01D901F9016281FC01C7
:100DA00012C081819927982F882720813327822B91
:100DB000932B892B39F48D919C9111970196119663
:100DC0009C938E9332968E2F841B861750F381E06E
:100DD00090E0089520E1FC0111922A95E9F780E165
:100DE00090E008952F923F924F925F926F927F9280
:100DF0008F929F92AF92BF92CF92DF92EF92FF922B
:100E00000F931F93CF93DF93CDB7DEB7E5970FB660
:100E1000F894DEBF0FBECDBF1C017DA76CA7009765
:100E200009F4F7C0672B09F4F4C0FC0163A074A0B7
:100E300025A536A53FA72EA74080518061147104D7
:100E400009F050C04114510409F4E0C0D201ED9101
:100E5000FC91A280B3809E012F5F3F4F89E0F90192
:100E600011928A95E9F78EA59FA59C838B83F20149
:100E7000628973898489958906891789061B170BEE
:100E8000FAE08F2E912C8C0E9D1E6901E2E4EE2E6D
:100E9000E1E0FE2E20E230E0A401F501099588236F
:100EA00009F4B4C04D805E806F8078844114510491
:100EB0006104710409F4AAC08BE2ACA5BDA51D9222
:100EC0008A95E9F709851127CCA4DDA473E7E72EFD
:100ED00071E0F72E20E230E0A401C301B201F50178
:100EE000099584C04114510409F490C0FC0182A109
:100EF00084FF8CC0F2010088F189E02DFBA7EAA7EE
:100F0000CF01AA27BB2788AB99ABAAABBBABDE014D
:100F10001196BDABACABEEEFFFEF6E0E7F1EB301D3
:100F20008827992722E030E0620E731E28A939A98C
:100F30004AA95BA90E94981BF20186889788A08C19
:100F4000B18C860E971EA81EB91E89E0ACA9BDA95A
:100F50001D928A95E9F7EEA5FFA5FC83EB83D201EC
:100F6000ED91FC91AE01465F5F4F0280F381E02D71
:100F70006E010894C11CD11C62E4E62E61E0F62EDD
:100F80000AA51BA520E230E0C501B401099588231C
:100F9000E9F18D809E80AF80B88481149104A10412
:100FA000B10441F4B301C2010E9456023C01892BF5
:100FB00069F1B1CF8BE2ECA5FDA511928A95E9F715
:100FC000D201ED91FC91098511270280F381E02D7A
:100FD000CCA4DDA433E7E32E31E0F32E20E230E0B1
:100FE000AE01465F5F4FC501B4010995882371F0DA
:100FF000ECA5FDA58081882349F0F10185A596A582
:10100000019696A785A781E090E005C0F10116A69C
:1010100015A680E090E0E5960FB6F894DEBF0FBE0F
:10102000CDBFDF91CF911F910F91FF90EF90DF9097
:10103000CF90BF90AF909F908F907F906F905F9078
:101040004F903F902F9008952F923F924F925F9232
:101050006F927F928F929F92AF92BF92CF92DF92C8
:10106000EF92FF920F931F93CF93DF93CDB7DEB72D
:10107000AC970FB6F894DEBF0FBECDBF6C010097E2
:1010800009F4A2C1FC0184819581892B09F49CC1DA
:1010900086819781892B09F497C102E011E01CA792
:1010A0000BA78091020190910301892B09F08CC15B
:1010B0008AE1D8011D928A95E9F7D0920301C09286
:1010C0000201018512852385348589E0000F111FF7
:1010D000221F331F8A95D1F70AA31BA32CA33DA37C
:1010E000C901B801655F7F4F8F4F9F4F0190F0811D
:1010F000E02D29E130E0AE014F5F5F4F0995882375
:1011000009F45EC129813A80FB81F8A74C813D81B9
:101110005E812F8048845984AA848D859927F82F71
:10112000EE278C859927E82BF92BEE888F89688D1F
:10113000798D309709F444C19927AA27BB276624E3
:10114000782E892E9A2E862F9927AA27BB27DC0175
:1011500099278827682A792A8A2A9B2A8E2D9927F7
:10116000AA27BB27682A792A8A2A9B2A872F9927A8
:10117000AA27BB27B82FAA2799278827682A792A60
:101180008A2A9B2A611471048104910479F48A2DBE
:101190009927782F6627852D9927682B792B61153C
:1011A000710509F40DC13B0188249924832D9927E9
:1011B000982F88279FA38EA3822F99270EA11FA166
:1011C000082B192B1FA30EA3842D9927982F88274E
:1011D0009AA789A7822D992769A57AA5682B792BCB
:1011E0007AA769A7832F9927982F8827242F332739
:1011F000822B932B8C01222733270A8F1B8F2C8F56
:101200003D8FBF0188279927252F3327442755274E
:101210000E94981B6E8F7F8F88A399A3840173010E
:101220002A8D3B8D4C8D5D8DE21AF30A040B150B54
:10123000E61AF70A080B190B8EA19FA1019729A5A1
:101240003AA545E0220F331F4A95E1F7820F931F1D
:101250006EA17FA10E94B71B88279927E61AF70A7B
:10126000080B190B68A5262F332744275527C801DB
:10127000B7010E94DE1B19012A01DA01C901855F4D
:101280009F40A040B0408050904FA040B04008F038
:1012900097C086E0F60180870BA51CA50E5F1F4F47
:1012A00088E1D8011D928A95E9F7025010401CA7E9
:1012B0000BA7EEA1FFA15F01CC24DD24C401B30183
:1012C000A60195010E94981B60930401709305018B
:1012D0008093060190930701C601B5012A8D3B8DCD
:1012E0004C8D5D8D0E94981B7B018C012AA13BA136
:1012F0004CA15DA1E20EF31E041F151FE092080130
:10130000F092090100930A0110930B01220C331C87
:10131000441C551C44E050E060E070E0240E351E93
:10132000461E571E20920C0130920D0140920E0174
:1013300050920F016EA17FA1709311016093100173
:1013400078A5872F9927AEA1BFA1FC01AE9FC00150
:10135000AF9F900DBE9F900D112490931301809329
:1013600012016E8D7F8D88A199A1A60195010E9421
:10137000981B6E0D7F1D801F911F60931401709349
:101380001501809316019093170109A51AA59801DC
:1013900044275527A5E0220F331F441F551FAA9548
:1013A000D1F7620F731F841F951F6093180170930C
:1013B000190180931A0190931B018BA59CA506C06F
:1013C000109203011092020180E090E0AC960FB6FB
:1013D000F894DEBF0FBECDBFDF91CF911F910F916B
:1013E000FF90EF90DF90CF90BF90AF909F908F9045
:1013F0007F906F905F904F903F902F9008952F9225
:101400003F924F925F926F927F928F929F92AF9294
:10141000BF92CF92DF92EF92FF920F931F93CF93E1
:10142000DF93CDB7DEB723970FB6F894DEBF0FBEBC
:10143000CDBF1C019B01892B09F4C2C04115510588
:1014400009F4BEC0FA0101900020E9F7E41BF50B96
:10145000CF010B966DE070E00E94B71B6F5F6B834E
:10146000F90143A054A04114510451F0662477249B
:101470004301AA24BB246501EE24FF2487010BC08D
:10148000F101A288B388C488D588E688F788008DE2
:10149000118D350146011A82AE14BF04C006D10673
:1014A00009F05EC04114510409F48AC0A114B104CA
:1014B000C104D10479F1B201C1010E945602009722
:1014C00041F541E050E0B201C1010E942B038C01C3
:1014D000892B09F475C002501040B801882799275C
:1014E0000E5F1F4FF10120893189442755270E9443
:1014F000981B3B014C01F10186899789A08DB18D24
:10150000680E791E8A1E9B1EB801C1010E94FC0351
:101510005AC02C01F101E088F188002711272EEF35
:101520003FEF420E531EB20188279927A2E0B0E098
:101530004A0E5B1EA80197010E94981B5B016C017B
:10154000F10186899789A08DB18DA80EB91ECA1E9A
:10155000DB1EEA0CFB1C0C1D1D1D350146011A8209
:10156000D101ED91FC910190F081E02D21E030E07E
:10157000AE014F5F5F4FC601B5010995882301F1A8
:101580008981853E11F0882379F4BA81BF5FBA83DF
:10159000EB81BE17C0F480E290E0A0E0B0E0A80EBE
:1015A000B91ECA1EDB1E78CF90E2692E712C812CE9
:1015B000912C6A0C7B1C8C1C9D1C640153016BCF0D
:1015C000662477244301C401B30123960FB6F8942F
:1015D000DEBF0FBECDBFDF91CF911F910F91FF9066
:1015E000EF90DF90CF90BF90AF909F908F907F90C3
:1015F0006F905F904F903F902F9008954F925F9221
:101600007F928F929F92AF92BF92CF92DF92EF9292
:10161000FF920F931F93CF93DF93CDB7DEB7A097C1
:101620000FB6F894DEBF0FBECDBFFC018B01892B36
:1016300009F41AC16115710509F416C10190F08110
:10164000E02D44805580FB01A7A0B0A4C1A4D2A482
:1016500001900020E9F73197FE2EF61A8F2D992779
:101660000C966DE070E00E94CB1B762E4BE050E0B4
:1016700060E270E0CE0101960E94551B6EE270E0C0
:10168000C8010E948D1BFC010097C1F0DC0111967E
:101690008181882399F0FD0101900020E9F73197BD
:1016A000EA1BFB0BFE1AFA944E2FE43008F043E0DD
:1016B0005527BD01CE0109960E944C1BCE01019613
:1016C000F8E0FF1588F04F2D5527B8010E944C1BFC
:1016D000D8018C918E3219F5F80181818E3209F48E
:1016E00082818823D9F01BC0DC01F80188E00190D9
:1016F0000D928150E1F7F80181A1982F92959F708A
:10170000803A10F4905D01C09F598F708A3010F4B8
:10171000805D01C08F599F83888701C077248981AC
:10172000853E11F485E089837CE0872E912C8C0E18
:101730009D1E85E1D4011D928A95E9F7F80180A1EB
:101740008C8781A192A18B8F892F99278C8F83A160
:1017500094A1A5A1B6A18D8F292F3A2F4B2F5527E4
:101760002E8F9D01442755272F8F8B2F9927AA272E
:10177000BB2788A3672D77278827992725E0660F41
:10178000771F881F991F2A95D1F76A0D7B1D8C1D25
:101790009D1D20E230E0AE014F5F5F4FF2010995E1
:1017A000882309F461C0E980FE01329694018E2DF0
:1017B0008695E794EE24E794E82A8191E80EE217F3
:1017C000F307A9F7F72C4E010894811C911C0D50CA
:1017D000104044C040E250E06FEF70E0C4010E944E
:1017E000551B8DE0F89ED0011124A00FB11F91E090
:1017F000F401E90FF11D8C918083892F8F5FF40133
:10180000E80FF11D10829E5F9B3021F09A3119F490
:101810009CE101C09EE08C91882321F09F3110F45F
:101820001196E6CFF982F71419F48F2D806489831D
:101830008FE08C87EE861D861B8E1C8E20E230E0AA
:10184000A401C601B501F201099580E290E0A0E093
:10185000B0E0A80EB91ECA1EDB1EFA94FF2009F0E4
:10186000B9CF81E090E002C080E090E0A0960FB692
:10187000F894DEBF0FBECDBFDF91CF911F910F91C6
:10188000FF90EF90DF90CF90BF90AF909F908F90A0
:101890007F905F904F9008952F923F924F925F926A
:1018A0006F927F928F929F92AF92BF92CF92DF9270
:1018B000EF92FF920F931F93CF93DF93CDB7DEB7D5
:1018C0002E970FB6F894DEBF0FBECDBF6C011A0184
:1018D0002B01009709F4E2C0FC01E3A0F4A0019001
:1018E000F081E02D80899189E114F10431F44115F2
:1018F00051056105710509F4BDC0420131019C012A
:10190000442755272F83388749875A875095409514
:10191000309521953F4F4F4F5F4F2B873C874D8729
:101920005E8711C0B701D6018D919C910E9456022D
:101930000097B9F02B853C854D855E85620E731E40
:10194000841E951E7C018F819885A985BA858B831D
:101950009C83AD83BE8386159705A805B90510F352
:10196000A0C05701C401B3012B813C814D815E8130
:101970000E94DE1B8901B901882799272B813C81B0
:101980004D815E810E94981B661577058805990533
:1019900010F40F5F1F4FA801B701D6018D919C91E4
:1019A0000E942B03009709F479C0EF2821F4F60177
:1019B00094A383A35C01F60125A236A247A250A6F8
:1019C000211431044104510411F414A213A2B601EC
:1019D0006E5F7F4FD6018D919C910E94FE0A8823F5
:1019E00009F45CC0211431044104510429F4B50107
:1019F000F601808191813CC02B813C814D815E81CB
:101A00002615370548055905A8F1D6010D911C91F9
:101A10000115110579F1B2E0AB16B10458F1B50129
:101A2000C8010E9456027C018FEF89838A83F801E6
:101A300080809180AA0CBB1CB5018827992726813C
:101A4000378140855185620F731F841F951FF401F4
:101A5000A481B58122E030E0AE014F5F5F4FFD0110
:101A60000995882339F0E114F10421F0B701C80188
:101A70000E94A802F60185A596A5A7A5B0A92816DB
:101A800039064A065B0638F4F60125A636A647A6AF
:101A900050AA12AA11AA81E090E009C080E090E06B
:101AA00006C05701E114F10409F45CCF84CF2E96EF
:101AB0000FB6F894DEBF0FBECDBFDF91CF911F915F
:101AC0000F91FF90EF90DF90CF90BF90AF909F90DD
:101AD0008F907F906F905F904F903F902F900895E0
:101AE000CF92DF92EF92FF920F931F93CF93DF93EA
:101AF000EC016B01892B09F446C06115710509F4ED
:101B000042C08DA59EA5AFA5B8A9413059F041307E
:101B100018F04230C1F50CC0FB01E080F180028179
:101B2000138113C0FB01E080F1800281138109C0A1
:101B3000FB01E080F180028113818DA19EA1AFA104
:101B4000B8A5E80EF91E0A1F1B1F8DA19EA1AFA10B
:101B5000B8A58E159F05A007B10738F4B801A701F5
:101B6000CE010E944C0C882371F0EDA6FEA60FA7B3
:101B700018AB1AAA19AAF601E082F1820283138334
:101B800081E090E002C080E090E0DF91CF911F9172
:101B90000F91FF90EF90DF90CF9008952F923F929A
:101BA0004F925F926F927F928F929F92AF92BF926D
:101BB000CF92DF92EF92FF920F931F93CF93DF9319
:101BC000CDB7DEB72A970FB6F894DEBF0FBECDBFF4
:101BD0005C011B0158874F83009709F43BC1672BB9
:101BE00009F438C1452B09F435C1FC0165A476A47C
:101BF00087A490A885A196A1A7A1B0A58615970551
:101C0000A805B90508F426C120813181F9010088B1
:101C1000F189E02DFA83E983F50101A8F2A9E02D0D
:101C2000FA87E98789819A81AA27BB278B839C83BE
:101C3000AD83BE83EF2B09F059C0F50103A0F4A1D9
:101C4000E02DFA87E987EF2BA9F461147104810470
:101C5000910409F0FFC041E050E060E070E0C9018C
:101C60000E942B039A878987F50194A383A3892B6C
:101C700009F4F0C0F501E5A4F6A407A510A9E11444
:101C8000F1040105110549F531C08B819C81AD81BD
:101C9000BE81E81AF90A0A0B1B0B69857A85D50102
:101CA0008D919C910E945602009719F09A8789871E
:101CB00014C0E114F1040105110509F0CBC041E0A5
:101CC00050E069857A85F501808191810E942B031E
:101CD000009709F4BFC09A8789878B819C81AD8169
:101CE000BE81E816F9060A071B0778F6C401B3019E
:101CF0002B813C814D815E810E94DE1B2B016F8018
:101D00007884D5018D919C9189809A80841895085A
:101D10006814790408F44301FC01C080D180720189
:101D20000027112786899789A08DB18DE80EF91EAD
:101D30000A1F1B1F29853A8522503040B901882788
:101D400099272E5F3F4F3A8729872B813C814D8110
:101D50005E810E94981BE60EF71E081F191FF601F0
:101D6000A481B5819401A101C801B701FD010995C4
:101D7000882309F446C068187908C401AA27BB273C
:101D8000F50125A536A547A550A9280F391F4A1FDB
:101D90005B1F25A736A747A750ABC401840D951D2F
:101DA00029813A818217930708F169857A858081B4
:101DB00091810E945602009719F09A87898714C072
:101DC0006114710459F041E050E069857A85D501CC
:101DD0008D919C910E942B03009721F4F50112AA8A
:101DE00011AA0FC09A8789874424552429853A85EA
:101DF000F50132AB21AB6114710419F0280C391CC8
:101E000080CFF50185A596A5A7A5B0A9E5A0F6A068
:101E100007A110A5E816F9060A071B07B0F485A369
:101E200096A3A7A3B0A7B5016E5F7F4F8081918174
:101E30000E94FE0A882349F4F50165A476A46E1871
:101E40007F08E5A6F6A607A710AB8F8198858619AF
:101E5000970902C08FEF9FEF2A960FB6F894DEBF66
:101E60000FBECDBFDF91CF911F910F91FF90EF90EB
:101E7000DF90CF90BF90AF909F908F907F906F90AA
:101E80005F904F903F902F900895CF93DF939C01E8
:101E9000FB01892B21F1672B11F180A184FF1FC069
:101EA00080914F0190915001892B19F4AFE4B1E07A
:101EB00008C080917E0190917F01892B81F4AEE76B
:101EC000B1E0ED0122968BE2019009928150E1F799
:101ED00011963C932E93FD0116A615A602C0A0E014
:101EE000B0E0CD01DF91CF910895CF93DF939C01B6
:101EF000FB01892B49F16115710531F180A184FD48
:101F000023C080911C0190911D01892BE9F4CEE141
:101F1000D1E0DB018BE20D9009928150E1F7309323
:101F20001D0120931C011092490110924A01109248
:101F30004B0110924C0181A192A190934E0180938C
:101F40004D018CE191E002C080E090E0DF91CF9103
:101F50000895CF92DF92EF92FF920F931F93CF934A
:101F6000DF937C018B01EA01892B09F443C06115E1
:101F7000710509F43FC0FB0180818823D9F1452B0D
:101F8000C9F1BE01C7010E94F206882351F0BE01CB
:101F9000C8010E94671B892BA1F7F70116A615A699
:101FA00029C0F701C080D1808BE2FE0111928A9591
:101FB000E9F74FE150E0B801CE010E947E1BAE016F
:101FC000B701C6010E94FF096FA378A789A79AA746
:101FD000611571058105910569F0BE01C6010E9478
:101FE000FE0A90E0882309F491E081E09827892F88
:101FF000992702C080E090E0DF91CF911F910F916F
:10200000FF90EF90DF90CF9008956F927F928F9224
:102010009F92AF92BF92CF92DF92EF92FF920F9377
:102020001F93CF93DF933C018B017A01892B09F435
:1020300061C06115710509F45DC0FB0180818823D1
:1020400009F458C0452B09F455C08F3211F40F5FC5
:102050001F4F8BE2F70111928A95E9F780E1F701B2
:1020600080A3F8018081882309F447C0B701C30128
:102070000E94450F5C01892BE9F16FE270E0C80115
:102080000E945C1B6C01892B41F4F8010190002037
:10209000E9F76F010894C108D1088C2D801B882EA8
:1020A000992421C0E70109900020E9F72197CE1972
:1020B000DF09C815D905B9F4AE01B701C8010E94FE
:1020C000701B892B81F4F50111821082C00FD11F82
:1020D0008881882391F0F70180A184FF0BC08601DD
:1020E0000F5F1F4FC3CFB701C5010E94F2068823BF
:1020F000C9F606C080E090E007C081E090E004C02F
:10210000F50111821082B2CFDF91CF911F910F9113
:10211000FF90EF90DF90CF90BF90AF909F908F9007
:102120007F906F9008959F92AF92BF92CF92DF926F
:10213000EF92FF920F931F93CF93DF936C015B019C
:10214000EA01892B09F495C06115710509F491C064
:10215000FB018081882309F48CC0452B09F489C0D8
:10216000BE01C6010E94F206882351F0BE01C501DE
:102170000E94671B892BA1F7F60116A615A679C048
:10218000F601E080F18041E050E060E070E0C701DE
:102190000E942B038C01009709F46BC0BC01C7019E
:1021A0000E94FC038BE2FE0111928A95E9F780E11F
:1021B00088A302501040B801882799270E5F1F4F4F
:1021C000F70120893189442755270E94981BF70180
:1021D00026893789408D518D260F371F481F591F7B
:1021E0002FA338A749A75AA7BEE29B2E98821AA30D
:1021F00009A3BE01C7010E94FE0A8823B1F18FA185
:1022000098A5A9A5BAA58096A11DB11D8FA398A7D1
:10221000A9A7BAA79982F60183A194A19AA389A339
:10222000BE01C7010E94FE0A8823F9F04FE150E089
:10223000B501CE010E947E1B1AA309A3AE01B6010F
:10224000C7010E94FF096FA378A789A79AA7611504
:1022500071058105910549F0BE01C7010E94FE0A82
:10226000882319F081E090E006C0B801C7010E9400
:10227000A80280E090E0DF91CF911F910F91FF9035
:10228000EF90DF90CF90BF90AF909F900895EF9226
:10229000FF920F931F93FC01DB01B80187ED97E0DC
:1022A0009183808381E08C93FA018083F90110820D
:1022B000FB011082F70110821F910F91FF90EF90A8
:1022C00008950F931F93CF93DF93CDB7DEB7699730
:1022D0000FB6F894DEBF0FBECDBF8C01892B09F479
:1022E0009CC0CE0101960E940319882309F495C071
:1022F0008FE292E00E94101B89810E94261A8AE0D8
:102300000E94171A86E292E00E94101BCE010296EC
:102310000E94031B8AE00E94171A8DE192E00E943E
:10232000101BCE0105960E94031B8AE00E94171A1B
:1023300084E192E00E94101B8B850E94261A8AE09D
:102340000E94171A89E092E00E94101B6C857D851F
:102350008E859F850E944F1A8AE00E94171A80E09E
:1023600092E00E94101B898999270E94621A8FE2CD
:102370000E94171A888999270E94621A8AE00E948F
:10238000171A87EF91E00E94101B6A897B898C895C
:102390009D890E94A21A8AE00E94171A8EEE91E08F
:1023A0000E94101B8E8999270E94621A8AE00E945F
:1023B000171A85EE91E00E94101B888D99270E94C4
:1023C000621A8FE20E94171A8F8999270E94621A57
:1023D0008AE00E94171A8CED91E00E94101B898DF3
:1023E00099270E94621A8AE00E94171A83ED91E0F1
:1023F0000E94101BC8010E943A060E94A21A8FE296
:102400000E94171AC8010E941F060E94A21A8AE0A1
:102410000E94171A81E090E002C080E090E0699687
:102420000FB6F894DEBF0FBECDBFDF91CF911F91E5
:102430000F910895EF92FF920F931F93CF93DF9325
:102440008B017A01E9010CC0B701CE010E94671B24
:10245000892B31F4C8010E94920581E090E008C008
:10246000BE01C8010E94F206882371F780E090E067
:10247000DF91CF911F910F91FF90EF900895EF9210
:10248000FF920F931F93CF93DF93CDB7DEB7AB9738
:102490000FB6F894DEBF0FBECDBF8C017E0108944D
:1024A000E11CF11C97010E941A12882319F480E0A4
:1024B00090E004C0B701C8010E94750FAB960FB63B
:1024C000F894DEBF0FBECDBFDF91CF911F910F916A
:1024D000FF90EF900895AF92BF92DF92EF92FF923C
:1024E0000F931F93CF93DF937C01062F1127A80131
:1024F00060E070E00E94551BDD2458010894A1089B
:10250000B10823C00E941E1B182F883011F08F378E
:1025100089F4DD20D1F0DA94F701ED0DF11D108280
:1025200088E00E94171A80E20E94171A88E00E9431
:10253000171A0BC00E94171AF701EC0FFD1F1A3073
:1025400011F4108207C01083D394CD2DDD27CA1556
:10255000DB05C4F2CE01DF91CF911F910F91FF9067
:10256000EF90DF90BF90AF900895C6E8D4E0DEBF53
:10257000CDBF83B7817F83BF0E940B1A0E94901842
:10258000882319F485EB91E068C200E020EC37E184
:102590004DE057E16AE178E186E796E10E943D155A
:1025A000009781F40FEF20EC37E14DE057E16AE14D
:1025B00078E186E796E10E943D15009719F48BE9D2
:1025C00091E04BC20E9424082C01009719F480E886
:1025D00091E043C28E010E5D1F4FA80160E071E0E3
:1025E0000E940510B801C2010E94450F3C01892BD1
:1025F00019F481E691E031C2C2010E9461110E948A
:102600001E1B8432E1F70E941E1B8C32E1F78E0103
:10261000025F1F4F680164E1E62EF12CEC0EFD1EF7
:102620000E941E1BD8018D938D01AE15BF05C1F709
:102630001C8AAE01435B5F4FB601C3010E94A90F24
:102640001A821B821C821D825EE0A52EB12CAC0E6C
:10265000BD1E42E0C42ED12CCC0EDD1E7E0108949E
:10266000E11CF11CA501B301C2010E943F128C01C3
:1026700040E0B6010E94700D0E941E1B898341E05C
:1026800050E0B701C8010E94CE0D89810E94171A3F
:102690008A819B81AC81BD810196A11DB11D8A8378
:1026A0009B83AC83BD8389818A3011F0803421F70C
:1026B000C8010E94490489818034A1F63EE0A32E1E
:1026C000B12CAC0EBD1E2DE4222E312C2C0E3D1E45
:1026D000EA96BFAEAEAEEA978EE30E94171A80E28A
:1026E0000E94171A64E1C5010E946B128823A1F3AE
:1026F00043E050E06DE571E0C5010E943E1B892B6F
:10270000F9F4E3E0F0E0AE0EBF1ED5018C91882312
:1027100019F39101A501B301C2010E941A12882385
:1027200061F0B101C2010E94450F8C01892B29F093
:10273000C3010E948C053801CFCF87E491E084C1AA
:1027400064E471E0C5010E94351B892B81F528C026
:10275000F10101900020E9F78F01015010400219AA
:102760001309C1010E94031BF10180A184FF02C073
:102770008FE201C080E294E2F92EF01A01C080E2FB
:102780000E94171AFA94FFEFFF16C9F7F10163A12F
:1027900074A185A196A10E94A21A8AE00E94171A2C
:1027A000B101C3010E94F206882391F695CF44E05F
:1027B00050E06FE371E0C5010E943E1B892B09F0D8
:1027C00049C084E090E0A80EB91ED5018C91882301
:1027D00009F482CFA501B301C2010E943F124C014E
:1027E000892B21F0CC24DD24760127C080E391E001
:1027F0002BC1C701B6010E944F1A8AE30E94171A23
:102800008E010A5F1F4F80E20E94171AF801819122
:102810008F010E94261AEA968EAD9FADEA9708179F
:10282000190789F78AE00E94171A88E090E0A0E073
:10283000B0E0C80ED91EEA1EFB1E48E050E0BE0103
:102840006A5F7F4FC4010E944F04181619068CF26C
:10285000C401BAC06BE271E0C5010E94351B892B2F
:1028600059F4C2010E946111882309F035CF82E139
:1028700091E00E94101B30CF43E050E06EE071E029
:10288000C5010E943E1B892BD9F4A3E0B0E0AA0E3B
:10289000BB1EF5018081882309F41ECF9101A5019B
:1028A000B301C2010E941A12882339F0B101C2019A
:1028B0000E949D05882309F00FCF88EF90E0C4C0E7
:1028C00046E050E061EF70E0C5010E943E1B892B9D
:1028D000A1F486E090E0A80EB91ED5018C91882362
:1028E00009F4FACEA101B501C3010E94A90F882302
:1028F00009F0F2CE8BED90E0A7C046E050E064ED29
:1029000070E0C5010E943E1B892B09F07EC0E6E005
:10291000F0E0AE0EBF1ED5018C91882309F4DCCE09
:10292000850102C00F5F1F4FF8018081803219F0CE
:102930008823C1F7D1CED8011C92A501B301C201F1
:102940000E943F127C01892B19F485EC90E07CC039
:1029500020E030E040E050E017C0CA01B9012AE0B1
:1029600030E040E050E00E94981B9B01AC018D2DAF
:10297000992787FD9095C097AA2797FDA095BA2F14
:10298000280F391F4A1F5B1FF801D1800F5F1F4FAF
:102990008D2D80538A3008F32A833B834C835D83DB
:1029A00040E0BE016E5F7F4FC7010E94700D88231B
:1029B00071F483EB90E00E94101BC5010E94031B81
:1029C0008AE00E94171AC7010E94490485CE8CE351
:1029D0000E94171A80E20E94171A64E1CE010E9637
:1029E0000E946B12882379F3082F1127A801BE01DA
:1029F000625F7F4FC7010E94CE0D8017910739F3A8
:102A00008CE990E00E94101BDECF46E050E065E9C3
:102A100070E0C5010E943E1B892BA1F486E090E086
:102A2000A80EB91ED5018C91882309F455CEA101B9
:102A3000B501C3010E949310882309F04DCE8AE7A7
:102A400090E002C088E690E00E94101BC5010E9441
:102A5000031B8AE00E94171A3FCE0E94101B81E0E0
:102A600090E00C94001CFC01892B19F480E090E0AC
:102A70000895108681E090E008958F929F92AF9222
:102A8000BF92CF92DF92EF92FF920F93CF93DF939B
:102A9000CDB7DEB760970FB6F894DEBF0FBECDBFDF
:102AA0007C016B015A014901892B09F4AAC0672BEB
:102AB00009F4A7C004300CF0A4C007FD1DC0602FAE
:102AC000772767FD7095E4E0660F771FEA95E1F7D9
:102AD00062547E4F882777FD8095982F20E130E063
:102AE000AE014F5F5F4FF7010995882309F489C054
:102AF0008D81882309F485C08091B501882309F070
:102B000080C0EDEAF1E081E1DF011D928A95E9F7ED
:102B1000F092AE01E092AD01D092B001C092AF014F
:102B2000B092B201A092B1019092B4018092B3012F
:102B300007FD62C08D818093B5012A853327442724
:102B40005527542F432F322F22278B859927AA27C9
:102B5000BB27DC0199278827282B392B4A2B5B2B95
:102B600089859927AA27BB27282B392B4A2B5B2B32
:102B70008C859927AA27BB27B82FAA2799278827AA
:102B8000282B392B4A2B5B2B2093B6013093B701AE
:102B90004093B8015093B9012E8533274427552718
:102BA000542F432F322F22278F859927AA27BB27FF
:102BB000DC0199278827282B392B4A2B5B2B8D8505
:102BC0009927AA27BB27282B392B4A2B5B2B8889CF
:102BD0009927AA27BB27B82FAA2799278827282B08
:102BE000392B4A2B5B2B2093BA013093BB014093C6
:102BF000BC015093BD0103C08FEF8093B501CF019D
:102C000002C080E090E060960FB6F894DEBF0FBE81
:102C1000CDBFDF91CF910F91FF90EF90DF90CF90DC
:102C2000BF90AF909F908F90089586B182958F70DE
:102C300099278095909581709070089586B18295BE
:102C400086958770992780959095817090700895EA
:102C50008EBD0DB407FEFDCF8DB58F778DBD089568
:102C60008FEF8EBD0DB407FEFDCF8DB58F778DBD77
:102C70008EB599270895DF92EF92FF920F931F93DD
:102C8000D82E7A018B010E9430168D2D80640E940F
:102C90002816812F9927AA27BB270E942816C8012A
:102CA000AA27BB270E942816BB27A12F902F8F2D64
:102CB0000E9428168E2D0E942816DD2011F485E929
:102CC00001C08FEF0E94281610E00E9430168F3F3F
:102CD00019F41F5F1A30C9F799271F910F91FF90C0
:102CE000EF90DF90089581E090E008952F923F9259
:102CF0004F925F926F927F928F929F92AF92BF920C
:102D0000CF92DF92EF92FF920F931F93CF93DF93B7
:102D10003B014C012A01190167C0C12C4EEFD42E92
:102D20004FEFE42E4FEFF42EC620D720E820F920F5
:102D300083011170A12C32E0B32EA01AB10A2A141B
:102D40003B0408F451018091BE039091BF03A09110
:102D5000C003B091C103C816D906EA06FB0691F17B
:102D60002A98B701A60181E10E943B16882321F031
:102D70002A9A80E090E03EC00E9430168E3FE1F734
:102D8000CEEBD1E00E943016899383E0CE3BD8078A
:102D9000C9F7C092BE03D092BF03E092C003F09285
:102DA000C10302541E4FA501B801C2010E944C1B71
:102DB0004A0C5B1C0E9430160E9430162A9A0E9410
:102DC000301609C002541E4FA501B801C2010E946D
:102DD0004C1B4A0C5B1C2A183B08C501AA27BB27C1
:102DE000680E791E8A1E9B1E2114310409F095CFAE
:102DF00081E090E0DF91CF911F910F91FF90EF90D4
:102E0000DF90CF90BF90AF909F908F907F906F900A
:102E10005F904F903F902F9008952F923F924F9246
:102E20005F926F927F928F929F92AF92BF92CF925A
:102E3000DF92EF92FF920F931F93CF93DF935B018B
:102E40006C012A01390186B182958695877080FFD1
:102E500077C081C0E12C7EEFF72E7FEF072F7FEF49
:102E6000172FEA20FB200C211D21E501D170812CB8
:102E700062E0962E8C1A9D0A6814790408F44301C6
:102E80008091BE039091BF03A091C003B091C10394
:102E9000E816F9060A071B07C9F0209729F480E015
:102EA000881682E0980650F420E032E0A101C801C3
:102EB000B7010E947616882309F44DC0E092BE0344
:102EC000F092BF030093C0031093C1038EEB48162A
:102ED00081E0580639F0A401B201CE0182549E4F20
:102EE0000E944C1B2A98B801A70188E10E943B165A
:102EF000882311F02A9A2FC08EEF0E942816E10134
:102F000089910E94281683E0CE3BD807C9F78FEF3E
:102F10000E9428168FEF0E9428160E9430168F3FBD
:102F2000E1F7480C591C0E9430162A9A6818790853
:102F3000C401AA27BB27A80EB91ECA1EDB1E04C0E7
:102F40005EEB252E51E0352E6114710409F082CF1D
:102F500081E090E002C080E090E0DF91CF911F918E
:102F60000F91FF90EF90DF90CF90BF90AF909F9028
:102F70008F907F906F905F904F903F902F9008952B
:102F80004F925F926F927F928F929F92AF92BF9279
:102F9000CF92DF92EF92FF920F931F93CF93DF9325
:102FA0005B016C014A01E90138012701452B61F100
:102FB000012B51F1FF24232B11F5FF24F3941FC0A3
:102FC0009201B601A501C401F30109958C01009796
:102FD000F1F0FF2019F4C817D907B0F09801A40147
:102FE000C601B5010E940D17882371F0C801AA27F8
:102FF000BB27A80EB91ECA1EDB1EC01BD10BFF20AB
:10300000F9F62097E9F603C080E090E002C081E085
:1030100090E0DF91CF911F910F91FF90EF90DF90A3
:10302000CF90BF90AF909F908F907F906F905F9068
:103030004F9008952F923F924F925F926F927F929E
:103040008F929F92AF92BF92CF92DF92EF92FF92B8
:103050000F931F93CF93DF93CDB7DEB724970FB6AF
:10306000F894DEBF0FBECDBF4B015C013A013C833B
:103070002B832701DA82C982452BA1F12115310565
:1030800089F10217130770F1EF2861F119013094EB
:10309000219431083394021B130B6901EE24FF24A1
:1030A0002B813C81A301C501B4010E9476168823BF
:1030B000C9F029813A81B501A401C301F201099542
:1030C000882399F0020D131D8B819C81800F911F25
:1030D0002B813C818217930740F08C0C9D1CAE1C09
:1030E000BF1CDECF80E090E002C081E090E024963B
:1030F0000FB6F894DEBF0FBECDBFDF91CF911F9109
:103100000F91FF90EF90DF90CF90BF90AF909F9086
:103110008F907F906F905F904F903F902F90089589
:103120001F93CF93DF933C983D98239A259A229A38
:1031300024982A9A83E58CBD8DB58E7F8DBD86B18E
:1031400082958F7080FD17C010E00E9430161F5FBF
:103150001A30D9F72A98C0E0D0E040E050E060E0B3
:1031600070E080E00E943B16813051F081E0CF3F5B
:10317000D80721F42A9A80E090E041C02196EDCF53
:10318000C0E0D0E040E050E060E070E081E00E940C
:103190003B1680FF06C08FE7CF3FD80759F3219633
:1031A000F1CF40E052E060E070E080E10E943B1629
:1031B000882301F72A9A8CB58C7F8CBD8DB58160F0
:1031C0008DBD8FEF9FEFAFEFBFEF8093BE03909366
:1031D000BF03A093C003B093C10320E032E04EEBE5
:1031E00051E060E070E080E090E00E94761690E0B0
:1031F000882309F491E081E09827892F9927DF91AE
:10320000CF911F910895CF92DF92EF92FF920F938B
:103210001F93CF93DF93EC01892B09F4F1C086B1A2
:1032200082958F7080FDECC089E1FE0111928A9534
:10323000E9F72A9840E050E060E070E08AE00E9400
:103240003B16882309F061C00E9430168E3FE1F7DB
:103250008E0120E6E22EF12C0E943016282F802FBE
:103260008C1B883028F4833090F4882359F00CC0EC
:103270008D3018F4893080F40DC08D3029F18E30F6
:1032800079F526C028832CC0F801208329C0F801D5
:10329000218326C02A8724C03327442755270E2C94
:1032A00004C0220F331F441F551F0A94D2F78B8589
:1032B0009C85AD85BE85822B932BA42BB52B8B874C
:1032C0009C87AD87BE870CC02295207F2F8708C0C2
:1032D000922F92959F708F85892B8F872F70288BC7
:1032E0000F5F1F4F88EF9FEFE80EF91E90EDE91674
:1032F0009FEFF90609F0B0CF40E050E060E070E0E9
:1033000089E00E943B16882311F02A9A79C00E9416
:1033100030168E3FE1F7CC24DD24EE24FF2400E0BC
:1033200010E00E943016083021F1093040F40630D8
:1033300091F00730B0F4053009F058C008C00A30E9
:1033400041F10A3008F10E3009F050C03AC09FE058
:10335000C92EC8224BC0992783709070F82EEE2496
:1033600045C09927E82AF92AEE0CFF1CEE0CFF1C39
:103370003DC082958695869583709927E82AF92A1B
:103380000894E11CF11C32C0F3E0DF2ED822DD0CE2
:103390002DC0881F8827881FD82A970144275527C2
:1033A0008C2D992702968D0D911D04C0220F331F7D
:1033B000441F551F8A95D2F7298B3A8B4B8B5C8B18
:1033C00015C0282F332726FF02C081E08D8B25FFF3
:1033D00002C081E08E8B24FF02C081E08F8B2C70B5
:1033E00030703595279535952795288F0F5F1F4F9E
:1033F0000231110509F095CF2A9A81E090E002C0D0
:1034000080E090E0DF91CF911F910F91FF90EF90BE
:10341000DF90CF9008951092C50087E68093C40096
:1034200086E08093C20088E98093C10008951F93CD
:10343000182F8A3019F48DE00E94171A8091C0006D
:1034400085FFFCCF1093C6001F9108951F93182F7E
:1034500082958F708A3010F4805D01C0895A0E9475
:10346000171A812F99278F709070212F2F700A972C
:103470001CF4822F805D02C0822F895A0E94171A85
:103480001F9108950F931F938C01812F99270E94FC
:10349000261A802F0E94261A1F910F910895EF92ED
:1034A000FF920F931F937B018C01C801AA27BB27B2
:1034B0000E94421AC7010E94421A1F910F91FF9069
:1034C000EF900895DF92EF92FF920F931F93CF93A7
:1034D000DF93EC0100E117E220E0EE24FF24CE01AF
:1034E000B8010E94B71BD62E662329F4222319F4B3
:1034F0000130110529F48D2D805D0E94171A21E0FD
:10350000C8016AE070E00E94B71B0894E11CF11C3E
:1035100045E0E416F10471F08D2D9927AC01409F30
:10352000C001419F900D509F900D1124C81BD90BD5
:103530008B01D5CFDF91CF911F910F91FF90EF902D
:10354000DF9008954F925F926F927F928F929F9239
:10355000AF92BF92CF92DF92EF92FF920F931F93A1
:10356000CF93DF937B018C01A12C2AECB22E2AE9A8
:10357000C22E2BE3D22E4424C0E0D0E0C801B70114
:10358000A60195010E94DE1B522E222341F4442005
:1035900031F481E0A816B104C104D10431F4852DC1
:1035A000805D0E94171A44244394C601B5012AE0A5
:1035B00030E040E050E00E94DE1B39014A012196D4
:1035C000CA30D10579F0652D772788279927A6017C
:1035D00095010E94981BE61AF70A080B190B640163
:1035E0005301CCCFDF91CF911F910F91FF90EF90BE
:1035F000DF90CF90BF90AF909F908F907F906F9013
:103600005F904F900895CF93DF93EC0103C0219614
:103610000E94171A88818823D1F7DF91CF910895EE
:10362000CF93DF93EC01FE0121968491882319F05A
:103630000E94171AF8CFDF91CF9108959FB7789421
:1036400007C083B7816083BF889583B78E7F83BFB0
:103650008091C00087FFF5CF9FBF8091C6008D305D
:1036600009F48AE0992708951895FB01DC018D91F2
:10367000059080190110D9F3990B0895FB01DC0125
:103680004150504030F08D910590801919F4002080
:10369000B9F7881B990B0895FB01DC0102C001906A
:1036A0000D9241505040D8F70895DC0101C06D9350
:1036B00041505040E0F70895FC018191861721F0B8
:1036C0008823D9F7992708953197CF010895FB01F1
:1036D000DC018D91019080190110D9F3990B0895A7
:1036E000FB01DC014150504030F08D910190801978
:1036F00019F40020B9F7881B990B0895FB01DC0130
:103700004150504048F001900D920020C9F701C08F
:103710001D9241505040E0F70895FC0181E090E097
:103720000190061609F4CF010020D1F70197089502
:10373000629FD001739FF001829FE00DF11D649F95
:10374000E00DF11D929FF00D839FF00D749FF00D21
:10375000659FF00D9927729FB00DE11DF91F639FC2
:10376000B00DE11DF91FBD01CF0111240895AA1B61
:10377000BB1B51E107C0AA1FBB1FA617B70710F05C
:10378000A61BB70B881F991F5A95A9F7809590958E
:10379000BC01CD01089597FB092E07260AD077FDBD
:1037A00004D0E5DF06D000201AF4709561957F4FB4
:1037B0000895F6F7909581959F4F0895A1E21A2EEE
:1037C000AA1BBB1BFD010DC0AA1FBB1FEE1FFF1FC5
:1037D000A217B307E407F50720F0A21BB30BE40B15
:1037E000F50B661F771F881F991F1A9469F760955C
:1037F0007095809590959B01AC01BD01CF01089516
:02380000FFCFF8
:023802002F0095
:00000001FF
